{
  "_format": "hh-sol-artifact-1",
  "contractName": "Donation",
  "sourceName": "contracts/Donation.sol",
  "abi": [
    {
      "inputs": [
        {
          "internalType": "address",
          "name": "_charity",
          "type": "address"
        }
      ],
      "stateMutability": "nonpayable",
      "type": "constructor"
    },
    {
      "anonymous": false,
      "inputs": [
        {
          "indexed": true,
          "internalType": "address",
          "name": "donor",
          "type": "address"
        },
        {
          "indexed": false,
          "internalType": "uint256",
          "name": "amount",
          "type": "uint256"
        },
        {
          "indexed": false,
          "internalType": "uint256",
          "name": "timestamp",
          "type": "uint256"
        }
      ],
      "name": "DonationReceived",
      "type": "event"
    },
    {
      "inputs": [],
      "name": "charity",
      "outputs": [
        {
          "internalType": "address",
          "name": "",
          "type": "address"
        }
      ],
      "stateMutability": "view",
      "type": "function"
    },
    {
      "inputs": [],
      "name": "donate",
      "outputs": [],
      "stateMutability": "payable",
      "type": "function"
    },
    {
      "inputs": [
        {
          "internalType": "address",
          "name": "",
          "type": "address"
        }
      ],
      "name": "donations",
      "outputs": [
        {
          "internalType": "uint256",
          "name": "",
          "type": "uint256"
        }
      ],
      "stateMutability": "view",
      "type": "function"
    },
    {
      "inputs": [
        {
          "internalType": "address",
          "name": "donor",
          "type": "address"
        }
      ],
      "name": "getDonation",
      "outputs": [
        {
          "internalType": "uint256",
          "name": "",
          "type": "uint256"
        }
      ],
      "stateMutability": "view",
      "type": "function"
    },
    {
      "inputs": [],
      "name": "totalDonations",
      "outputs": [
        {
          "internalType": "uint256",
          "name": "",
          "type": "uint256"
        }
      ],
      "stateMutability": "view",
      "type": "function"
    }
  ],
  "bytecode": "0x608060405234801561001057600080fd5b50604051610707380380610707833981810160405281019061003291906100fd565b600073ffffffffffffffffffffffffffffffffffffffff168173ffffffffffffffffffffffffffffffffffffffff1614156100a2576040517f08c379a00000000000000000000000000000000000000000000000000000000081526004016100999061018c565b60405180910390fd5b806000806101000a81548173ffffffffffffffffffffffffffffffffffffffff021916908373ffffffffffffffffffffffffffffffffffffffff16021790555050610206565b6000815190506100f7816101ef565b92915050565b60006020828403121561010f57600080fd5b600061011d848285016100e8565b91505092915050565b6000610133602a836101ac565b91507f4368617269747920616464726573732063616e6e6f7420626520746865207a6560008301527f726f2061646472657373000000000000000000000000000000000000000000006020830152604082019050919050565b600060208201905081810360008301526101a581610126565b9050919050565b600082825260208201905092915050565b60006101c8826101cf565b9050919050565b600073ffffffffffffffffffffffffffffffffffffffff82169050919050565b6101f8816101bd565b811461020357600080fd5b50565b6104f2806102156000396000f3fe60806040526004361061004a5760003560e01c8063410a1d321461004f578063934aa0231461008c578063cc6cb19a146100b7578063de2ed893146100f4578063ed88c68e1461011f575b600080fd5b34801561005b57600080fd5b50610076600480360381019061007191906102cd565b610129565b604051610083919061038f565b60405180910390f35b34801561009857600080fd5b506100a1610172565b6040516100ae9190610354565b60405180910390f35b3480156100c357600080fd5b506100de60048036038101906100d991906102cd565b610196565b6040516100eb919061038f565b60405180910390f35b34801561010057600080fd5b506101096101ae565b604051610116919061038f565b60405180910390f35b6101276101b4565b005b6000600160008373ffffffffffffffffffffffffffffffffffffffff1673ffffffffffffffffffffffffffffffffffffffff168152602001908152602001600020549050919050565b60008054906101000a900473ffffffffffffffffffffffffffffffffffffffff1681565b60016020528060005260406000206000915090505481565b60025481565b600034116101f7576040517f08c379a00000000000000000000000000000000000000000000000000000000081526004016101ee9061036f565b60405180910390fd5b34600160003373ffffffffffffffffffffffffffffffffffffffff1673ffffffffffffffffffffffffffffffffffffffff168152602001908152602001600020600082825461024691906103e4565b92505081905550346002600082825461025f91906103e4565b925050819055503373ffffffffffffffffffffffffffffffffffffffff167f4b0304ab2f313234b1cea012339c8f8c3bf2c8bb357d81a579cfdb35d2e3d03034426040516102ae9291906103aa565b60405180910390a2565b6000813590506102c7816104a5565b92915050565b6000602082840312156102df57600080fd5b60006102ed848285016102b8565b91505092915050565b6102ff8161043a565b82525050565b6000610312601f836103d3565b91507f446f6e6174696f6e206d7573742062652067726561746572207468616e2030006000830152602082019050919050565b61034e8161046c565b82525050565b600060208201905061036960008301846102f6565b92915050565b6000602082019050818103600083015261038881610305565b9050919050565b60006020820190506103a46000830184610345565b92915050565b60006040820190506103bf6000830185610345565b6103cc6020830184610345565b9392505050565b600082825260208201905092915050565b60006103ef8261046c565b91506103fa8361046c565b9250827fffffffffffffffffffffffffffffffffffffffffffffffffffffffffffffffff0382111561042f5761042e610476565b5b828201905092915050565b60006104458261044c565b9050919050565b600073ffffffffffffffffffffffffffffffffffffffff82169050919050565b6000819050919050565b7f4e487b7100000000000000000000000000000000000000000000000000000000600052601160045260246000fd5b6104ae8161043a565b81146104b957600080fd5b5056fea2646970667358221220fef93ddf185517073ed1dcc3fe073e2dd5e2b5eb6937594aab263a7aabf5133d64736f6c63430008000033",
  "linkReferences": {},
  "deployedLinkReferences": {}
}