{
  "_format": "hh-sol-artifact-1",
  "contractName": "Donation",
  "sourceName": "contracts/Donation.sol",
  "abi": [
    {
      "inputs": [
        {
          "internalType": "address",
          "name": "_charity",
          "type": "address"
        }
      ],
      "stateMutability": "nonpayable",
      "type": "constructor"
    },
    {
      "anonymous": false,
      "inputs": [
        {
          "indexed": true,
          "internalType": "address",
          "name": "donor",
          "type": "address"
        },
        {
          "indexed": false,
          "internalType": "uint256",
          "name": "amount",
          "type": "uint256"
        },
        {
          "indexed": false,
          "internalType": "uint256",
          "name": "timestamp",
          "type": "uint256"
        }
      ],
      "name": "DonationReceived",
      "type": "event"
    },
    {
      "inputs": [],
      "name": "charity",
      "outputs": [
        {
          "internalType": "address",
          "name": "",
          "type": "address"
        }
      ],
      "stateMutability": "view",
      "type": "function"
    },
    {
      "inputs": [],
      "name": "donate",
      "outputs": [],
      "stateMutability": "payable",
      "type": "function"
    },
    {
      "inputs": [
        {
          "internalType": "address",
          "name": "",
          "type": "address"
        }
      ],
      "name": "donations",
      "outputs": [
        {
          "internalType": "uint256",
          "name": "",
          "type": "uint256"
        }
      ],
      "stateMutability": "view",
      "type": "function"
    },
    {
      "inputs": [
        {
          "internalType": "address",
          "name": "donor",
          "type": "address"
        }
      ],
      "name": "getDonation",
      "outputs": [
        {
          "internalType": "uint256",
          "name": "",
          "type": "uint256"
        }
      ],
      "stateMutability": "view",
      "type": "function"
    },
    {
      "inputs": [],
      "name": "totalDonations",
      "outputs": [
        {
          "internalType": "uint256",
          "name": "",
          "type": "uint256"
        }
      ],
      "stateMutability": "view",
      "type": "function"
    }
  ],
  "bytecode": "0x608060405234801561001057600080fd5b5060405161037738038061037783398101604081905261002f916100c1565b6001600160a01b03811661009c5760405162461bcd60e51b815260206004820152602a60248201527f4368617269747920616464726573732063616e6e6f7420626520746865207a65604482015269726f206164647265737360b01b606482015260840160405180910390fd5b600080546001600160a01b0319166001600160a01b03929092169190911790556100f1565b6000602082840312156100d357600080fd5b81516001600160a01b03811681146100ea57600080fd5b9392505050565b610277806101006000396000f3fe60806040526004361061004a5760003560e01c8063410a1d321461004f578063934aa02314610098578063cc6cb19a146100d0578063de2ed893146100fd578063ed88c68e14610113575b600080fd5b34801561005b57600080fd5b5061008561006a3660046101ea565b6001600160a01b031660009081526001602052604090205490565b6040519081526020015b60405180910390f35b3480156100a457600080fd5b506000546100b8906001600160a01b031681565b6040516001600160a01b03909116815260200161008f565b3480156100dc57600080fd5b506100856100eb3660046101ea565b60016020526000908152604090205481565b34801561010957600080fd5b5061008560025481565b61011b61011d565b005b600034116101715760405162461bcd60e51b815260206004820152601f60248201527f446f6e6174696f6e206d7573742062652067726561746572207468616e203000604482015260640160405180910390fd5b336000908152600160205260408120805434929061019090849061021a565b9250508190555034600260008282546101a9919061021a565b90915550506040805134815242602082015233917f4b0304ab2f313234b1cea012339c8f8c3bf2c8bb357d81a579cfdb35d2e3d030910160405180910390a2565b6000602082840312156101fc57600080fd5b81356001600160a01b038116811461021357600080fd5b9392505050565b8082018082111561023b57634e487b7160e01b600052601160045260246000fd5b9291505056fea2646970667358221220c48c5d7c1401de3404eaf2cbb98dc9196db7e5e815aa6d397e144e6f3bc9865264736f6c63430008140033",
  "linkReferences": {},
  "deployedLinkReferences": {}
}