{
  "_format": "hh-sol-artifact-1",
  "contractName": "Expenditure",
  "sourceName": "contracts/Expenditure.sol",
  "abi": [
    {
      "inputs": [],
      "stateMutability": "nonpayable",
      "type": "constructor"
    },
    {
      "anonymous": false,
      "inputs": [
        {
          "indexed": true,
          "internalType": "address",
          "name": "recipient",
          "type": "address"
        },
        {
          "indexed": false,
          "internalType": "uint256",
          "name": "amount",
          "type": "uint256"
        },
        {
          "indexed": false,
          "internalType": "string",
          "name": "purpose",
          "type": "string"
        },
        {
          "indexed": false,
          "internalType": "uint256",
          "name": "timestamp",
          "type": "uint256"
        }
      ],
      "name": "FundsDisbursed",
      "type": "event"
    },
    {
      "inputs": [],
      "name": "admin",
      "outputs": [
        {
          "internalType": "address",
          "name": "",
          "type": "address"
        }
      ],
      "stateMutability": "view",
      "type": "function"
    },
    {
      "inputs": [
        {
          "internalType": "address",
          "name": "_recipient",
          "type": "address"
        },
        {
          "internalType": "uint256",
          "name": "_amount",
          "type": "uint256"
        },
        {
          "internalType": "string",
          "name": "_purpose",
          "type": "string"
        }
      ],
      "name": "disburseFunds",
      "outputs": [],
      "stateMutability": "nonpayable",
      "type": "function"
    },
    {
      "inputs": [
        {
          "internalType": "uint256",
          "name": "",
          "type": "uint256"
        }
      ],
      "name": "expenditures",
      "outputs": [
        {
          "internalType": "address",
          "name": "recipient",
          "type": "address"
        },
        {
          "internalType": "uint256",
          "name": "amount",
          "type": "uint256"
        },
        {
          "internalType": "string",
          "name": "purpose",
          "type": "string"
        },
        {
          "internalType": "uint256",
          "name": "timestamp",
          "type": "uint256"
        }
      ],
      "stateMutability": "view",
      "type": "function"
    },
    {
      "inputs": [],
      "name": "getExpenditures",
      "outputs": [
        {
          "components": [
            {
              "internalType": "address",
              "name": "recipient",
              "type": "address"
            },
            {
              "internalType": "uint256",
              "name": "amount",
              "type": "uint256"
            },
            {
              "internalType": "string",
              "name": "purpose",
              "type": "string"
            },
            {
              "internalType": "uint256",
              "name": "timestamp",
              "type": "uint256"
            }
          ],
          "internalType": "struct Expenditure.ExpenditureRecord[]",
          "name": "",
          "type": "tuple[]"
        }
      ],
      "stateMutability": "view",
      "type": "function"
    },
    {
      "inputs": [],
      "name": "totalExpenditures",
      "outputs": [
        {
          "internalType": "uint256",
          "name": "",
          "type": "uint256"
        }
      ],
      "stateMutability": "view",
      "type": "function"
    }
  ],
  "bytecode": "0x608060405234801561001057600080fd5b50600080546001600160a01b03191633179055610932806100326000396000f3fe608060405234801561001057600080fd5b50600436106100575760003560e01c80633af48e321461005c57806350d23b221461008857806385471cf51461009f578063cc5b5f8b146100b4578063f851a440146100c9575b600080fd5b61006f61006a366004610546565b6100f4565b60405161007f94939291906105a5565b60405180910390f35b61009160015481565b60405190815260200161007f565b6100b26100ad3660046105f3565b6101c3565b005b6100bc61042b565b60405161007f91906106cc565b6000546100dc906001600160a01b031681565b6040516001600160a01b03909116815260200161007f565b6002818154811061010457600080fd5b60009182526020909120600490910201805460018201546002830180546001600160a01b03909316945090929161013a90610763565b80601f016020809104026020016040519081016040528092919081815260200182805461016690610763565b80156101b35780601f10610188576101008083540402835291602001916101b3565b820191906000526020600020905b81548152906001019060200180831161019657829003601f168201915b5050505050908060030154905084565b6000546001600160a01b0316331461022d5760405162461bcd60e51b815260206004820152602260248201527f4f6e6c792061646d696e2063616e20706572666f726d2074686973206163746960448201526137b760f11b60648201526084015b60405180910390fd5b6001600160a01b0383166102985760405162461bcd60e51b815260206004820152602c60248201527f526563697069656e7420616464726573732063616e6e6f74206265207468652060448201526b7a65726f206164647265737360a01b6064820152608401610224565b600082116102e85760405162461bcd60e51b815260206004820152601d60248201527f416d6f756e74206d7573742062652067726561746572207468616e20300000006044820152606401610224565b604080516080810182526001600160a01b038581168252602082018581529282018481524260608401526002805460018101825560009190915283517f405787fa12a823e0f2b7631cc41b3ba8828b3321ca811111fa75cd3aa3bb5ace600490920291820180546001600160a01b0319169190941617835593517f405787fa12a823e0f2b7631cc41b3ba8828b3321ca811111fa75cd3aa3bb5acf85015551919283927f405787fa12a823e0f2b7631cc41b3ba8828b3321ca811111fa75cd3aa3bb5ad0909101906103ba90826107ec565b5060608201518160030155505082600160008282546103d991906108ac565b92505081905550836001600160a01b03167f3ce196848ce53bb643be125ceb6101bef87f5dd653b9ed976d07b7eee00b1ac584844260405161041d939291906108d3565b60405180910390a250505050565b60606002805480602002602001604051908101604052809291908181526020016000905b8282101561053d576000848152602090819020604080516080810182526004860290920180546001600160a01b03168352600181015493830193909352600283018054929392918401916104a290610763565b80601f01602080910402602001604051908101604052809291908181526020018280546104ce90610763565b801561051b5780601f106104f05761010080835404028352916020019161051b565b820191906000526020600020905b8154815290600101906020018083116104fe57829003601f168201915b505050505081526020016003820154815250508152602001906001019061044f565b50505050905090565b60006020828403121561055857600080fd5b5035919050565b6000815180845260005b8181101561058557602081850181015186830182015201610569565b506000602082860101526020601f19601f83011685010191505092915050565b60018060a01b03851681528360208201526080604082015260006105cc608083018561055f565b905082606083015295945050505050565b634e487b7160e01b600052604160045260246000fd5b60008060006060848603121561060857600080fd5b83356001600160a01b038116811461061f57600080fd5b925060208401359150604084013567ffffffffffffffff8082111561064357600080fd5b818601915086601f83011261065757600080fd5b813581811115610669576106696105dd565b604051601f8201601f19908116603f01168101908382118183101715610691576106916105dd565b816040528281528960208487010111156106aa57600080fd5b8260208601602083013760006020848301015280955050505050509250925092565b60006020808301818452808551808352604092508286019150828160051b87010184880160005b8381101561075557888303603f19018552815180516001600160a01b031684528781015188850152868101516080888601819052906107348287018261055f565b606093840151969093019590955250948701949250908601906001016106f3565b509098975050505050505050565b600181811c9082168061077757607f821691505b60208210810361079757634e487b7160e01b600052602260045260246000fd5b50919050565b601f8211156107e757600081815260208120601f850160051c810160208610156107c45750805b601f850160051c820191505b818110156107e3578281556001016107d0565b5050505b505050565b815167ffffffffffffffff811115610806576108066105dd565b61081a816108148454610763565b8461079d565b602080601f83116001811461084f57600084156108375750858301515b600019600386901b1c1916600185901b1785556107e3565b600085815260208120601f198616915b8281101561087e5788860151825594840194600190910190840161085f565b508582101561089c5787850151600019600388901b60f8161c191681555b5050505050600190811b01905550565b808201808211156108cd57634e487b7160e01b600052601160045260246000fd5b92915050565b8381526060602082015260006108ec606083018561055f565b905082604083015294935050505056fea2646970667358221220b17ac60cb5598c9d606d82798607074d741672b6963feb1534853ab8ff3ef59864736f6c63430008140033",
  "linkReferences": {},
  "deployedLinkReferences": {}
}