{
  "_format": "hh-sol-artifact-1",
  "contractName": "Expenditure",
  "sourceName": "contracts/Expenditure.sol",
  "abi": [
    {
      "inputs": [],
      "stateMutability": "nonpayable",
      "type": "constructor"
    },
    {
      "anonymous": false,
      "inputs": [
        {
          "indexed": true,
          "internalType": "address",
          "name": "recipient",
          "type": "address"
        },
        {
          "indexed": false,
          "internalType": "uint256",
          "name": "amount",
          "type": "uint256"
        },
        {
          "indexed": false,
          "internalType": "string",
          "name": "purpose",
          "type": "string"
        },
        {
          "indexed": false,
          "internalType": "uint256",
          "name": "timestamp",
          "type": "uint256"
        }
      ],
      "name": "FundsDisbursed",
      "type": "event"
    },
    {
      "inputs": [],
      "name": "admin",
      "outputs": [
        {
          "internalType": "address",
          "name": "",
          "type": "address"
        }
      ],
      "stateMutability": "view",
      "type": "function"
    },
    {
      "inputs": [
        {
          "internalType": "address",
          "name": "_recipient",
          "type": "address"
        },
        {
          "internalType": "uint256",
          "name": "_amount",
          "type": "uint256"
        },
        {
          "internalType": "string",
          "name": "_purpose",
          "type": "string"
        }
      ],
      "name": "disburseFunds",
      "outputs": [],
      "stateMutability": "nonpayable",
      "type": "function"
    },
    {
      "inputs": [
        {
          "internalType": "uint256",
          "name": "",
          "type": "uint256"
        }
      ],
      "name": "expenditures",
      "outputs": [
        {
          "internalType": "address",
          "name": "recipient",
          "type": "address"
        },
        {
          "internalType": "uint256",
          "name": "amount",
          "type": "uint256"
        },
        {
          "internalType": "string",
          "name": "purpose",
          "type": "string"
        },
        {
          "internalType": "uint256",
          "name": "timestamp",
          "type": "uint256"
        }
      ],
      "stateMutability": "view",
      "type": "function"
    },
    {
      "inputs": [],
      "name": "getExpenditures",
      "outputs": [
        {
          "components": [
            {
              "internalType": "address",
              "name": "recipient",
              "type": "address"
            },
            {
              "internalType": "uint256",
              "name": "amount",
              "type": "uint256"
            },
            {
              "internalType": "string",
              "name": "purpose",
              "type": "string"
            },
            {
              "internalType": "uint256",
              "name": "timestamp",
              "type": "uint256"
            }
          ],
          "internalType": "struct Expenditure.ExpenditureRecord[]",
          "name": "",
          "type": "tuple[]"
        }
      ],
      "stateMutability": "view",
      "type": "function"
    },
    {
      "inputs": [],
      "name": "totalExpenditures",
      "outputs": [
        {
          "internalType": "uint256",
          "name": "",
          "type": "uint256"
        }
      ],
      "stateMutability": "view",
      "type": "function"
    }
  ],
  "bytecode": "0x608060405234801561001057600080fd5b50336000806101000a81548173ffffffffffffffffffffffffffffffffffffffff021916908373ffffffffffffffffffffffffffffffffffffffff160217905550610e81806100606000396000f3fe608060405234801561001057600080fd5b50600436106100575760003560e01c80633af48e321461005c57806350d23b221461008f57806385471cf5146100ad578063cc5b5f8b146100c9578063f851a440146100e7575b600080fd5b610076600480360381019061007191906107a1565b610105565b6040516100869493929190610a8b565b60405180910390f35b6100976101ed565b6040516100a49190610b59565b60405180910390f35b6100c760048036038101906100c2919061073a565b6101f3565b005b6100d1610486565b6040516100de9190610ad7565b60405180910390f35b6100ef6105e1565b6040516100fc9190610a70565b60405180910390f35b6002818154811061011557600080fd5b90600052602060002090600402016000915090508060000160009054906101000a900473ffffffffffffffffffffffffffffffffffffffff169080600101549080600201805461016490610d4d565b80601f016020809104026020016040519081016040528092919081815260200182805461019090610d4d565b80156101dd5780601f106101b2576101008083540402835291602001916101dd565b820191906000526020600020905b8154815290600101906020018083116101c057829003601f168201915b5050505050908060030154905084565b60015481565b60008054906101000a900473ffffffffffffffffffffffffffffffffffffffff1673ffffffffffffffffffffffffffffffffffffffff163373ffffffffffffffffffffffffffffffffffffffff1614610281576040517f08c379a000000000000000000000000000000000000000000000000000000000815260040161027890610b39565b60405180910390fd5b600073ffffffffffffffffffffffffffffffffffffffff168373ffffffffffffffffffffffffffffffffffffffff1614156102f1576040517f08c379a00000000000000000000000000000000000000000000000000000000081526004016102e890610b19565b60405180910390fd5b60008211610334576040517f08c379a000000000000000000000000000000000000000000000000000000000815260040161032b90610af9565b60405180910390fd5b600060405180608001604052808573ffffffffffffffffffffffffffffffffffffffff168152602001848152602001838152602001428152509050600281908060018154018082558091505060019003906000526020600020906004020160009091909190915060008201518160000160006101000a81548173ffffffffffffffffffffffffffffffffffffffff021916908373ffffffffffffffffffffffffffffffffffffffff160217905550602082015181600101556040820151816002019080519060200190610408929190610605565b5060608201518160030155505082600160008282546104279190610c79565b925050819055508373ffffffffffffffffffffffffffffffffffffffff167f3ce196848ce53bb643be125ceb6101bef87f5dd653b9ed976d07b7eee00b1ac584844260405161047893929190610b74565b60405180910390a250505050565b60606002805480602002602001604051908101604052809291908181526020016000905b828210156105d857838290600052602060002090600402016040518060800160405290816000820160009054906101000a900473ffffffffffffffffffffffffffffffffffffffff1673ffffffffffffffffffffffffffffffffffffffff1673ffffffffffffffffffffffffffffffffffffffff1681526020016001820154815260200160028201805461053d90610d4d565b80601f016020809104026020016040519081016040528092919081815260200182805461056990610d4d565b80156105b65780601f1061058b576101008083540402835291602001916105b6565b820191906000526020600020905b81548152906001019060200180831161059957829003601f168201915b50505050508152602001600382015481525050815260200190600101906104aa565b50505050905090565b60008054906101000a900473ffffffffffffffffffffffffffffffffffffffff1681565b82805461061190610d4d565b90600052602060002090601f016020900481019282610633576000855561067a565b82601f1061064c57805160ff191683800117855561067a565b8280016001018555821561067a579182015b8281111561067957825182559160200191906001019061065e565b5b509050610687919061068b565b5090565b5b808211156106a457600081600090555060010161068c565b5090565b60006106bb6106b684610be3565b610bb2565b9050828152602081018484840111156106d357600080fd5b6106de848285610d0b565b509392505050565b6000813590506106f581610e1d565b92915050565b600082601f83011261070c57600080fd5b813561071c8482602086016106a8565b91505092915050565b60008135905061073481610e34565b92915050565b60008060006060848603121561074f57600080fd5b600061075d868287016106e6565b935050602061076e86828701610725565b925050604084013567ffffffffffffffff81111561078b57600080fd5b610797868287016106fb565b9150509250925092565b6000602082840312156107b357600080fd5b60006107c184828501610725565b91505092915050565b60006107d683836109ef565b905092915050565b6107e781610ccf565b82525050565b6107f681610ccf565b82525050565b600061080782610c23565b6108118185610c46565b93508360208202850161082385610c13565b8060005b8581101561085f578484038952815161084085826107ca565b945061084b83610c39565b925060208a01995050600181019050610827565b50829750879550505050505092915050565b600061087c82610c2e565b6108868185610c57565b9350610896818560208601610d1a565b61089f81610e0c565b840191505092915050565b60006108b582610c2e565b6108bf8185610c68565b93506108cf818560208601610d1a565b6108d881610e0c565b840191505092915050565b60006108f0601d83610c68565b91507f416d6f756e74206d7573742062652067726561746572207468616e20300000006000830152602082019050919050565b6000610930602c83610c68565b91507f526563697069656e7420616464726573732063616e6e6f74206265207468652060008301527f7a65726f206164647265737300000000000000000000000000000000000000006020830152604082019050919050565b6000610996602283610c68565b91507f4f6e6c792061646d696e2063616e20706572666f726d2074686973206163746960008301527f6f6e0000000000000000000000000000000000000000000000000000000000006020830152604082019050919050565b6000608083016000830151610a0760008601826107de565b506020830151610a1a6020860182610a52565b5060408301518482036040860152610a328282610871565b9150506060830151610a476060860182610a52565b508091505092915050565b610a5b81610d01565b82525050565b610a6a81610d01565b82525050565b6000602082019050610a8560008301846107ed565b92915050565b6000608082019050610aa060008301876107ed565b610aad6020830186610a61565b8181036040830152610abf81856108aa565b9050610ace6060830184610a61565b95945050505050565b60006020820190508181036000830152610af181846107fc565b905092915050565b60006020820190508181036000830152610b12816108e3565b9050919050565b60006020820190508181036000830152610b3281610923565b9050919050565b60006020820190508181036000830152610b5281610989565b9050919050565b6000602082019050610b6e6000830184610a61565b92915050565b6000606082019050610b896000830186610a61565b8181036020830152610b9b81856108aa565b9050610baa6040830184610a61565b949350505050565b6000604051905081810181811067ffffffffffffffff82111715610bd957610bd8610ddd565b5b8060405250919050565b600067ffffffffffffffff821115610bfe57610bfd610ddd565b5b601f19601f8301169050602081019050919050565b6000819050602082019050919050565b600081519050919050565b600081519050919050565b6000602082019050919050565b600082825260208201905092915050565b600082825260208201905092915050565b600082825260208201905092915050565b6000610c8482610d01565b9150610c8f83610d01565b9250827fffffffffffffffffffffffffffffffffffffffffffffffffffffffffffffffff03821115610cc457610cc3610d7f565b5b828201905092915050565b6000610cda82610ce1565b9050919050565b600073ffffffffffffffffffffffffffffffffffffffff82169050919050565b6000819050919050565b82818337600083830152505050565b60005b83811015610d38578082015181840152602081019050610d1d565b83811115610d47576000848401525b50505050565b60006002820490506001821680610d6557607f821691505b60208210811415610d7957610d78610dae565b5b50919050565b7f4e487b7100000000000000000000000000000000000000000000000000000000600052601160045260246000fd5b7f4e487b7100000000000000000000000000000000000000000000000000000000600052602260045260246000fd5b7f4e487b7100000000000000000000000000000000000000000000000000000000600052604160045260246000fd5b6000601f19601f8301169050919050565b610e2681610ccf565b8114610e3157600080fd5b50565b610e3d81610d01565b8114610e4857600080fd5b5056fea2646970667358221220f5df3ac4817be98f06f1d4b0517a4a8666f9a5dba152d546a75f8ffb8b27696464736f6c63430008000033",
  "linkReferences": {},
  "deployedLinkReferences": {}
}