{
  "_format": "hh-sol-artifact-1",
  "contractName": "Campaign",
  "sourceName": "contracts/Campaign.sol",
  "abi": [
    {
      "inputs": [],
      "name": "ReentrancyGuardReentrantCall",
      "type": "error"
    },
    {
      "anonymous": false,
      "inputs": [
        {
          "indexed": true,
          "internalType": "uint256",
          "name": "campaignId",
          "type": "uint256"
        },
        {
          "indexed": true,
          "internalType": "address",
          "name": "owner",
          "type": "address"
        },
        {
          "indexed": false,
          "internalType": "string",
          "name": "metadata",
          "type": "string"
        }
      ],
      "name": "CampaignCreated",
      "type": "event"
    },
    {
      "anonymous": false,
      "inputs": [
        {
          "indexed": true,
          "internalType": "uint256",
          "name": "campaignId",
          "type": "uint256"
        },
        {
          "indexed": true,
          "internalType": "address",
          "name": "donor",
          "type": "address"
        },
        {
          "indexed": false,
          "internalType": "uint256",
          "name": "amount",
          "type": "uint256"
        },
        {
          "indexed": false,
          "internalType": "uint256",
          "name": "timestamp",
          "type": "uint256"
        }
      ],
      "name": "DonationReceived",
      "type": "event"
    },
    {
      "anonymous": false,
      "inputs": [
        {
          "indexed": true,
          "internalType": "uint256",
          "name": "campaignId",
          "type": "uint256"
        },
        {
          "indexed": true,
          "internalType": "address",
          "name": "recipient",
          "type": "address"
        },
        {
          "indexed": false,
          "internalType": "uint256",
          "name": "amount",
          "type": "uint256"
        },
        {
          "indexed": false,
          "internalType": "string",
          "name": "description",
          "type": "string"
        },
        {
          "indexed": false,
          "internalType": "uint256",
          "name": "timestamp",
          "type": "uint256"
        }
      ],
      "name": "ExpenseRecorded",
      "type": "event"
    },
    {
      "anonymous": false,
      "inputs": [
        {
          "indexed": true,
          "internalType": "uint256",
          "name": "campaignId",
          "type": "uint256"
        },
        {
          "indexed": true,
          "internalType": "address",
          "name": "owner",
          "type": "address"
        },
        {
          "indexed": false,
          "internalType": "uint256",
          "name": "amount",
          "type": "uint256"
        }
      ],
      "name": "FundsWithdrawn",
      "type": "event"
    },
    {
      "inputs": [],
      "name": "campaignCounter",
      "outputs": [
        {
          "internalType": "uint256",
          "name": "",
          "type": "uint256"
        }
      ],
      "stateMutability": "view",
      "type": "function"
    },
    {
      "inputs": [
        {
          "internalType": "uint256",
          "name": "",
          "type": "uint256"
        }
      ],
      "name": "campaigns",
      "outputs": [
        {
          "internalType": "address",
          "name": "owner",
          "type": "address"
        },
        {
          "internalType": "uint256",
          "name": "balance",
          "type": "uint256"
        },
        {
          "internalType": "string",
          "name": "metadata",
          "type": "string"
        },
        {
          "internalType": "bool",
          "name": "active",
          "type": "bool"
        },
        {
          "internalType": "uint256",
          "name": "totalDonations",
          "type": "uint256"
        },
        {
          "internalType": "uint256",
          "name": "totalExpenses",
          "type": "uint256"
        }
      ],
      "stateMutability": "view",
      "type": "function"
    },
    {
      "inputs": [
        {
          "internalType": "string",
          "name": "_metadata",
          "type": "string"
        }
      ],
      "name": "createCampaign",
      "outputs": [
        {
          "internalType": "uint256",
          "name": "",
          "type": "uint256"
        }
      ],
      "stateMutability": "nonpayable",
      "type": "function"
    },
    {
      "inputs": [
        {
          "internalType": "uint256",
          "name": "_campaignId",
          "type": "uint256"
        }
      ],
      "name": "donate",
      "outputs": [],
      "stateMutability": "payable",
      "type": "function"
    },
    {
      "inputs": [
        {
          "internalType": "uint256",
          "name": "",
          "type": "uint256"
        },
        {
          "internalType": "address",
          "name": "",
          "type": "address"
        }
      ],
      "name": "donations",
      "outputs": [
        {
          "internalType": "uint256",
          "name": "",
          "type": "uint256"
        }
      ],
      "stateMutability": "view",
      "type": "function"
    },
    {
      "inputs": [
        {
          "internalType": "uint256",
          "name": "",
          "type": "uint256"
        },
        {
          "internalType": "uint256",
          "name": "",
          "type": "uint256"
        }
      ],
      "name": "expenses",
      "outputs": [
        {
          "internalType": "address",
          "name": "recipient",
          "type": "address"
        },
        {
          "internalType": "uint256",
          "name": "amount",
          "type": "uint256"
        },
        {
          "internalType": "string",
          "name": "description",
          "type": "string"
        },
        {
          "internalType": "uint256",
          "name": "timestamp",
          "type": "uint256"
        },
        {
          "internalType": "uint256",
          "name": "campaignId",
          "type": "uint256"
        }
      ],
      "stateMutability": "view",
      "type": "function"
    },
    {
      "inputs": [
        {
          "internalType": "uint256",
          "name": "_campaignId",
          "type": "uint256"
        }
      ],
      "name": "getCampaign",
      "outputs": [
        {
          "components": [
            {
              "internalType": "address",
              "name": "owner",
              "type": "address"
            },
            {
              "internalType": "uint256",
              "name": "balance",
              "type": "uint256"
            },
            {
              "internalType": "string",
              "name": "metadata",
              "type": "string"
            },
            {
              "internalType": "bool",
              "name": "active",
              "type": "bool"
            },
            {
              "internalType": "uint256",
              "name": "totalDonations",
              "type": "uint256"
            },
            {
              "internalType": "uint256",
              "name": "totalExpenses",
              "type": "uint256"
            }
          ],
          "internalType": "struct Campaign.CampaignData",
          "name": "",
          "type": "tuple"
        }
      ],
      "stateMutability": "view",
      "type": "function"
    },
    {
      "inputs": [
        {
          "internalType": "uint256",
          "name": "_campaignId",
          "type": "uint256"
        }
      ],
      "name": "getCampaignBalance",
      "outputs": [
        {
          "internalType": "uint256",
          "name": "",
          "type": "uint256"
        }
      ],
      "stateMutability": "view",
      "type": "function"
    },
    {
      "inputs": [
        {
          "internalType": "uint256",
          "name": "_campaignId",
          "type": "uint256"
        }
      ],
      "name": "getCampaignExpenses",
      "outputs": [
        {
          "components": [
            {
              "internalType": "address",
              "name": "recipient",
              "type": "address"
            },
            {
              "internalType": "uint256",
              "name": "amount",
              "type": "uint256"
            },
            {
              "internalType": "string",
              "name": "description",
              "type": "string"
            },
            {
              "internalType": "uint256",
              "name": "timestamp",
              "type": "uint256"
            },
            {
              "internalType": "uint256",
              "name": "campaignId",
              "type": "uint256"
            }
          ],
          "internalType": "struct Campaign.Expense[]",
          "name": "",
          "type": "tuple[]"
        }
      ],
      "stateMutability": "view",
      "type": "function"
    },
    {
      "inputs": [
        {
          "internalType": "uint256",
          "name": "_campaignId",
          "type": "uint256"
        },
        {
          "internalType": "address",
          "name": "_donor",
          "type": "address"
        }
      ],
      "name": "getDonationAmount",
      "outputs": [
        {
          "internalType": "uint256",
          "name": "",
          "type": "uint256"
        }
      ],
      "stateMutability": "view",
      "type": "function"
    },
    {
      "inputs": [],
      "name": "getTotalCampaigns",
      "outputs": [
        {
          "internalType": "uint256",
          "name": "",
          "type": "uint256"
        }
      ],
      "stateMutability": "view",
      "type": "function"
    },
    {
      "inputs": [
        {
          "internalType": "uint256",
          "name": "_campaignId",
          "type": "uint256"
        },
        {
          "internalType": "address",
          "name": "_recipient",
          "type": "address"
        },
        {
          "internalType": "uint256",
          "name": "_amount",
          "type": "uint256"
        },
        {
          "internalType": "string",
          "name": "_description",
          "type": "string"
        }
      ],
      "name": "recordExpense",
      "outputs": [],
      "stateMutability": "nonpayable",
      "type": "function"
    },
    {
      "inputs": [
        {
          "internalType": "uint256",
          "name": "_campaignId",
          "type": "uint256"
        }
      ],
      "name": "toggleCampaign",
      "outputs": [],
      "stateMutability": "nonpayable",
      "type": "function"
    },
    {
      "inputs": [
        {
          "internalType": "uint256",
          "name": "_campaignId",
          "type": "uint256"
        },
        {
          "internalType": "uint256",
          "name": "_amount",
          "type": "uint256"
        }
      ],
      "name": "withdrawFunds",
      "outputs": [],
      "stateMutability": "nonpayable",
      "type": "function"
    }
  ],
  "bytecode": "0x608060405234801561001057600080fd5b5060016000556117e3806100256000396000f3fe6080604052600436106100dd5760003560e01c8063e43826d81161007f578063ee1554a311610059578063ee1554a314610269578063f14faf6f146102a1578063fca604d7146102b4578063fdbf9ff1146102ca57600080fd5b8063e43826d814610209578063e525310514610229578063eb044b971461024957600080fd5b80635ad47519116100bb5780635ad4751914610169578063aab907941461018b578063d117e644146101b8578063d8decffe146101d857600080fd5b8063141961bc146100e257806316f43dd41461011d5780635598f8cc1461013c575b600080fd5b3480156100ee57600080fd5b506101026100fd3660046111bc565b6102ea565b6040516101149695949392919061121b565b60405180910390f35b34801561012957600080fd5b506004545b604051908152602001610114565b34801561014857600080fd5b5061015c6101573660046111bc565b6103ba565b6040516101149190611260565b34801561017557600080fd5b506101896101843660046111bc565b61052e565b005b34801561019757600080fd5b506101ab6101a63660046111bc565b6105ba565b60405161011491906112c4565b3480156101c457600080fd5b506101896101d3366004611423565b610718565b3480156101e457600080fd5b506101f86101f3366004611484565b610b06565b6040516101149594939291906114a6565b34801561021557600080fd5b5061012e6102243660046114e1565b610be8565b34801561023557600080fd5b50610189610244366004611484565b610c43565b34801561025557600080fd5b5061012e6102643660046111bc565b610e5e565b34801561027557600080fd5b5061012e6102843660046114e1565b600260209081526000928352604080842090915290825290205481565b6101896102af3660046111bc565b610ea7565b3480156102c057600080fd5b5061012e60045481565b3480156102d657600080fd5b5061012e6102e536600461150d565b61103d565b60016020819052600091825260409091208054918101546002820180546001600160a01b039094169391929161031f9061154a565b80601f016020809104026020016040519081016040528092919081815260200182805461034b9061154a565b80156103985780601f1061036d57610100808354040283529160200191610398565b820191906000526020600020905b81548152906001019060200180831161037b57829003601f168201915b5050505060038301546004840154600590940154929360ff9091169290915086565b6103fe6040518060c0016040528060006001600160a01b03168152602001600081526020016060815260200160001515815260200160008152602001600081525090565b8160008111801561041157506004548111155b6104365760405162461bcd60e51b815260040161042d9061157e565b60405180910390fd5b600083815260016020818152604092839020835160c08101855281546001600160a01b031681529281015491830191909152600281018054929391929184019161047f9061154a565b80601f01602080910402602001604051908101604052809291908181526020018280546104ab9061154a565b80156104f85780601f106104cd576101008083540402835291602001916104f8565b820191906000526020600020905b8154815290600101906020018083116104db57829003601f168201915b5050509183525050600382015460ff16151560208201526004820154604082015260059091015460609091015291505b50919050565b8060008111801561054157506004548111155b61055d5760405162461bcd60e51b815260040161042d9061157e565b60008281526001602052604090205482906001600160a01b031633146105955760405162461bcd60e51b815260040161042d906115b5565b50506000908152600160205260409020600301805460ff19811660ff90911615179055565b6060816000811180156105cf57506004548111155b6105eb5760405162461bcd60e51b815260040161042d9061157e565b600083815260036020908152604080832080548251818502810185019093528083529193909284015b8282101561070c5760008481526020908190206040805160a0810182526005860290920180546001600160a01b03168352600181015493830193909352600283018054929392918401916106679061154a565b80601f01602080910402602001604051908101604052809291908181526020018280546106939061154a565b80156106e05780601f106106b5576101008083540402835291602001916106e0565b820191906000526020600020905b8154815290600101906020018083116106c357829003601f168201915b505050505081526020016003820154815260200160048201548152505081526020019060010190610614565b50505050915050919050565b8360008111801561072b57506004548111155b6107475760405162461bcd60e51b815260040161042d9061157e565b600085815260016020526040902060030154859060ff166107a35760405162461bcd60e51b815260206004820152601660248201527543616d706169676e206973206e6f742061637469766560501b604482015260640161042d565b60008681526001602052604090205486906001600160a01b031633146107db5760405162461bcd60e51b815260040161042d906115b5565b6001600160a01b0386166108315760405162461bcd60e51b815260206004820181905260248201527f526563697069656e742063616e6e6f74206265207a65726f2061646472657373604482015260640161042d565b600085116108815760405162461bcd60e51b815260206004820152601d60248201527f416d6f756e74206d7573742062652067726561746572207468616e2030000000604482015260640161042d565b600087815260016020819052604090912001548511156108e35760405162461bcd60e51b815260206004820152601d60248201527f496e73756666696369656e742063616d706169676e2062616c616e6365000000604482015260640161042d565b60008451116109345760405162461bcd60e51b815260206004820152601b60248201527f4465736372697074696f6e2063616e6e6f7420626520656d7074790000000000604482015260640161042d565b60008781526001602081905260408220018054879290610955908490611616565b90915550506000878152600160205260408120600501805487929061097b90849061162f565b90915550506040805160a0810182526001600160a01b0388811682526020808301898152838501898152426060860152608085018d905260008d81526003845295862080546001808201835591885293909620855160059094020180546001600160a01b0319169390941692909217835551938201939093559151909182916002820190610a099082611691565b50606082015181600301556080820151816004015550506000876001600160a01b03168760405160006040518083038185875af1925050503d8060008114610a6d576040519150601f19603f3d011682016040523d82523d6000602084013e610a72565b606091505b5050905080610ab55760405162461bcd60e51b815260206004820152600f60248201526e151c985b9cd9995c8819985a5b1959608a1b604482015260640161042d565b876001600160a01b0316897fa6bf4a07b4b4310ba944ca044c0c4dca31b776aaa285d40bb3f81a1ce928097c898942604051610af393929190611751565b60405180910390a3505050505050505050565b60036020528160005260406000208181548110610b2257600080fd5b60009182526020909120600590910201805460018201546002830180546001600160a01b03909316955090935090610b599061154a565b80601f0160208091040260200160405190810160405280929190818152602001828054610b859061154a565b8015610bd25780601f10610ba757610100808354040283529160200191610bd2565b820191906000526020600020905b815481529060010190602001808311610bb557829003601f168201915b5050505050908060030154908060040154905085565b600082600081118015610bfd57506004548111155b610c195760405162461bcd60e51b815260040161042d9061157e565b505060009182526002602090815260408084206001600160a01b0393909316845291905290205490565b610c4b611192565b81600081118015610c5e57506004548111155b610c7a5760405162461bcd60e51b815260040161042d9061157e565b60008381526001602052604090205483906001600160a01b03163314610cb25760405162461bcd60e51b815260040161042d906115b5565b60008311610d025760405162461bcd60e51b815260206004820152601d60248201527f416d6f756e74206d7573742062652067726561746572207468616e2030000000604482015260640161042d565b60008481526001602081905260409091200154831115610d645760405162461bcd60e51b815260206004820152601d60248201527f496e73756666696369656e742063616d706169676e2062616c616e6365000000604482015260640161042d565b60008481526001602081905260408220018054859290610d85908490611616565b9091555050604051600090339085908381818185875af1925050503d8060008114610dcc576040519150601f19603f3d011682016040523d82523d6000602084013e610dd1565b606091505b5050905080610e165760405162461bcd60e51b815260206004820152601160248201527015da5d1a191c985dd85b0819985a5b1959607a1b604482015260640161042d565b604051848152339086907ff440aec6b52895984d061d622e6edeba6210f7c3e059be920663140c084560d79060200160405180910390a3505050610e5a6001600055565b5050565b600081600081118015610e7357506004548111155b610e8f5760405162461bcd60e51b815260040161042d9061157e565b50506000908152600160208190526040909120015490565b80600081118015610eba57506004548111155b610ed65760405162461bcd60e51b815260040161042d9061157e565b600082815260016020526040902060030154829060ff16610f325760405162461bcd60e51b815260206004820152601660248201527543616d706169676e206973206e6f742061637469766560501b604482015260640161042d565b60003411610f825760405162461bcd60e51b815260206004820152601f60248201527f446f6e6174696f6e206d7573742062652067726561746572207468616e203000604482015260640161042d565b60008381526001602081905260408220018054349290610fa390849061162f565b909155505060008381526001602052604081206004018054349290610fc990849061162f565b9091555050600083815260026020908152604080832033845290915281208054349290610ff790849061162f565b909155505060408051348152426020820152339185917f3dbea1b4ce5f95137fdcac9b1d685825c3d70ace830df1ca5a181d3887add410910160405180910390a3505050565b60008082511161108f5760405162461bcd60e51b815260206004820152601860248201527f4d657461646174612063616e6e6f7420626520656d7074790000000000000000604482015260640161042d565b6004805490600061109f8361177a565b90915550506040805160c081018252338152600060208083018281528385018781526001606086018190526080860185905260a0860185905260045485529283905294909220835181546001600160a01b0319166001600160a01b039091161781559151908201559151909190600282019061111b9082611691565b50606082015160038201805460ff1916911515919091179055608082015160048083019190915560a090920151600590910155546040513391907fc04c663886cae794dc52158f70fe6c8ee3b0140d4f48647282f9b693ff688a6590611182908690611793565b60405180910390a3505060045490565b6002600054036111b557604051633ee5aeb560e01b815260040160405180910390fd5b6002600055565b6000602082840312156111ce57600080fd5b5035919050565b6000815180845260005b818110156111fb576020818501810151868301820152016111df565b506000602082860101526020601f19601f83011685010191505092915050565b60018060a01b038716815285602082015260c06040820152600061124260c08301876111d5565b941515606083015250608081019290925260a0909101529392505050565b6020815260018060a01b038251166020820152602082015160408201526000604083015160c0606084015261129860e08401826111d5565b9050606084015115156080840152608084015160a084015260a084015160c08401528091505092915050565b60006020808301818452808551808352604092508286019150828160051b87010184880160005b8381101561135657888303603f19018552815180516001600160a01b0316845287810151888501528681015160a08886018190529061132c828701826111d5565b606084810151908801526080938401519390960192909252505093860193908601906001016112eb565b509098975050505050505050565b80356001600160a01b038116811461137b57600080fd5b919050565b634e487b7160e01b600052604160045260246000fd5b600082601f8301126113a757600080fd5b813567ffffffffffffffff808211156113c2576113c2611380565b604051601f8301601f19908116603f011681019082821181831017156113ea576113ea611380565b8160405283815286602085880101111561140357600080fd5b836020870160208301376000602085830101528094505050505092915050565b6000806000806080858703121561143957600080fd5b8435935061144960208601611364565b925060408501359150606085013567ffffffffffffffff81111561146c57600080fd5b61147887828801611396565b91505092959194509250565b6000806040838503121561149757600080fd5b50508035926020909101359150565b60018060a01b038616815284602082015260a0604082015260006114cd60a08301866111d5565b606083019490945250608001529392505050565b600080604083850312156114f457600080fd5b8235915061150460208401611364565b90509250929050565b60006020828403121561151f57600080fd5b813567ffffffffffffffff81111561153657600080fd5b61154284828501611396565b949350505050565b600181811c9082168061155e57607f821691505b60208210810361052857634e487b7160e01b600052602260045260246000fd5b60208082526017908201527f43616d706169676e20646f6573206e6f74206578697374000000000000000000604082015260600190565b6020808252602b908201527f4f6e6c792063616d706169676e206f776e65722063616e20706572666f726d2060408201526a3a3434b99030b1ba34b7b760a91b606082015260800190565b634e487b7160e01b600052601160045260246000fd5b8181038181111561162957611629611600565b92915050565b8082018082111561162957611629611600565b601f82111561168c57600081815260208120601f850160051c810160208610156116695750805b601f850160051c820191505b8181101561168857828155600101611675565b5050505b505050565b815167ffffffffffffffff8111156116ab576116ab611380565b6116bf816116b9845461154a565b84611642565b602080601f8311600181146116f457600084156116dc5750858301515b600019600386901b1c1916600185901b178555611688565b600085815260208120601f198616915b8281101561172357888601518255948401946001909101908401611704565b50858210156117415787850151600019600388901b60f8161c191681555b5050505050600190811b01905550565b83815260606020820152600061176a60608301856111d5565b9050826040830152949350505050565b60006001820161178c5761178c611600565b5060010190565b6020815260006117a660208301846111d5565b939250505056fea2646970667358221220923467430fbbf4015f7f41943e090ebe3273d9d855ae5bff30e2066b54e9c56364736f6c63430008140033",
  "linkReferences": {},
  "deployedLinkReferences": {}
}